{
  "_format": "hh-sol-artifact-1",
  "contractName": "ClaimApplication",
  "sourceName": "contracts/ClaimApplication.sol",
  "abi": [
    {
      "inputs": [
        {
          "internalType": "address",
          "name": "_contractregistryAddress",
          "type": "address"
        }
      ],
      "stateMutability": "nonpayable",
      "type": "constructor"
    },
    {
      "anonymous": false,
      "inputs": [
        {
          "indexed": false,
          "internalType": "address",
          "name": "_policyHolder",
          "type": "address"
        },
        {
          "indexed": false,
          "internalType": "uint256",
          "name": "_policyNumber",
          "type": "uint256"
        }
      ],
      "name": "ClaimApplicationApproved",
      "type": "event"
    },
    {
      "anonymous": false,
      "inputs": [
        {
          "indexed": false,
          "internalType": "address",
          "name": "_policyHolder",
          "type": "address"
        },
        {
          "indexed": false,
          "internalType": "uint256",
          "name": "_policyNumber",
          "type": "uint256"
        }
      ],
      "name": "ClaimApplicationRejected",
      "type": "event"
    },
    {
      "anonymous": false,
      "inputs": [
        {
          "indexed": false,
          "internalType": "address",
          "name": "_policyHolder",
          "type": "address"
        },
        {
          "indexed": false,
          "internalType": "uint256",
          "name": "_policyNumber",
          "type": "uint256"
        }
      ],
      "name": "ClaimApplicationSubmitted",
      "type": "event"
    },
    {
      "anonymous": false,
      "inputs": [
        {
          "indexed": false,
          "internalType": "address",
          "name": "_policyHolder",
          "type": "address"
        },
        {
          "indexed": false,
          "internalType": "uint256",
          "name": "_policyNumber",
          "type": "uint256"
        }
      ],
      "name": "ClaimApplicationVerified",
      "type": "event"
    },
    {
      "inputs": [
        {
          "internalType": "address",
          "name": "_policyHolder",
          "type": "address"
        }
      ],
      "name": "getClaim",
      "outputs": [
        {
          "components": [
            {
              "internalType": "address",
              "name": "policyHolder",
              "type": "address"
            },
            {
              "internalType": "uint256",
              "name": "amount",
              "type": "uint256"
            },
            {
              "internalType": "bool",
              "name": "verified",
              "type": "bool"
            },
            {
              "internalType": "bool",
              "name": "paid",
              "type": "bool"
            }
          ],
          "internalType": "struct ClaimApplication.Claim",
          "name": "",
          "type": "tuple"
        }
      ],
      "stateMutability": "view",
      "type": "function"
    },
    {
      "inputs": [],
      "name": "getClaims",
      "outputs": [
        {
          "components": [
            {
              "internalType": "address",
              "name": "policyHolder",
              "type": "address"
            },
            {
              "internalType": "uint256",
              "name": "amount",
              "type": "uint256"
            },
            {
              "internalType": "bool",
              "name": "verified",
              "type": "bool"
            },
            {
              "internalType": "bool",
              "name": "paid",
              "type": "bool"
            }
          ],
          "internalType": "struct ClaimApplication.Claim[]",
          "name": "",
          "type": "tuple[]"
        }
      ],
      "stateMutability": "view",
      "type": "function"
    },
    {
      "inputs": [
        {
          "internalType": "address",
          "name": "_policyHolder",
          "type": "address"
        }
      ],
      "name": "payClaim",
      "outputs": [],
      "stateMutability": "nonpayable",
      "type": "function"
    },
    {
      "inputs": [
        {
          "internalType": "address",
          "name": "_policyHolder",
          "type": "address"
        }
      ],
      "name": "rejectClaim",
      "outputs": [],
      "stateMutability": "nonpayable",
      "type": "function"
    },
    {
      "inputs": [
        {
          "internalType": "uint256",
          "name": "_ClaimAmount",
          "type": "uint256"
        }
      ],
      "name": "submitClaim",
      "outputs": [],
      "stateMutability": "payable",
      "type": "function"
    },
    {
      "inputs": [
        {
          "internalType": "address",
          "name": "_policyHolder",
          "type": "address"
        }
      ],
      "name": "verifyClaim",
      "outputs": [],
      "stateMutability": "nonpayable",
      "type": "function"
    }
  ],
  "bytecode": "0x60806040523480156200001157600080fd5b5060405162002bd638038062002bd68339818101604052810190620000379190620000e8565b806000806101000a81548173ffffffffffffffffffffffffffffffffffffffff021916908373ffffffffffffffffffffffffffffffffffffffff160217905550506200011a565b600080fd5b600073ffffffffffffffffffffffffffffffffffffffff82169050919050565b6000620000b08262000083565b9050919050565b620000c281620000a3565b8114620000ce57600080fd5b50565b600081519050620000e281620000b7565b92915050565b6000602082840312156200010157620001006200007e565b5b60006200011184828501620000d1565b91505092915050565b612aac806200012a6000396000f3fe6080604052600436106100555760003560e01c80631f30ed7a1461005a57806336b9418a146100835780634cd3723a146100ac5780636aa14a96146100e9578063a80d520c14610105578063c52822f81461012e575b600080fd5b34801561006657600080fd5b50610081600480360381019061007c9190611d0a565b610159565b005b34801561008f57600080fd5b506100aa60048036038101906100a59190611d0a565b610533565b005b3480156100b857600080fd5b506100d360048036038101906100ce9190611d0a565b610a9b565b6040516100e09190611dcf565b60405180910390f35b61010360048036038101906100fe9190611e16565b610c41565b005b34801561011157600080fd5b5061012c60048036038101906101279190611d0a565b61139d565b005b34801561013a57600080fd5b506101436117fc565b6040516101509190611f47565b60405180910390f35b806000600260008373ffffffffffffffffffffffffffffffffffffffff1673ffffffffffffffffffffffffffffffffffffffff168152602001908152602001600020549050600081036101e1576040517f08c379a00000000000000000000000000000000000000000000000000000000081526004016101d890611fec565b60405180910390fd5b60008060009054906101000a900473ffffffffffffffffffffffffffffffffffffffff1673ffffffffffffffffffffffffffffffffffffffff1663358177736040518060400160405280600681526020017f706f6c69637900000000000000000000000000000000000000000000000000008152506040518263ffffffff1660e01b8152600401610272919061208b565b602060405180830381865afa15801561028f573d6000803e3d6000fd5b505050506040513d601f19601f820116820180604052508101906102b391906120c2565b905060008173ffffffffffffffffffffffffffffffffffffffff1663dbc837c56040518163ffffffff1660e01b8152600401602060405180830381865afa158015610302573d6000803e3d6000fd5b505050506040513d601f19601f82011682018060405250810190610326919061212d565b90508073ffffffffffffffffffffffffffffffffffffffff163373ffffffffffffffffffffffffffffffffffffffff1614610396576040517f08c379a000000000000000000000000000000000000000000000000000000000815260040161038d906121cc565b60405180910390fd5b60008060009054906101000a900473ffffffffffffffffffffffffffffffffffffffff1673ffffffffffffffffffffffffffffffffffffffff1663358177736040518060400160405280600681526020017f706f6c69637900000000000000000000000000000000000000000000000000008152506040518263ffffffff1660e01b8152600401610427919061208b565b602060405180830381865afa158015610444573d6000803e3d6000fd5b505050506040513d601f19601f8201168201806040525081019061046891906120c2565b9050610473866118f1565b60008173ffffffffffffffffffffffffffffffffffffffff16635eb7d95a886040518263ffffffff1660e01b81526004016104ae91906121fb565b602060405180830381865afa1580156104cb573d6000803e3d6000fd5b505050506040513d601f19601f820116820180604052508101906104ef919061222b565b90507f34cf79016e20b1e5bd3a95ecca27b31ff74cec27128a1b648c838f5c39477a1d8782604051610522929190612267565b60405180910390a150505050505050565b60008060009054906101000a900473ffffffffffffffffffffffffffffffffffffffff1673ffffffffffffffffffffffffffffffffffffffff1663358177736040518060400160405280600681526020017f706f6c69637900000000000000000000000000000000000000000000000000008152506040518263ffffffff1660e01b81526004016105c4919061208b565b602060405180830381865afa1580156105e1573d6000803e3d6000fd5b505050506040513d601f19601f8201168201806040525081019061060591906120c2565b905060008173ffffffffffffffffffffffffffffffffffffffff1663dbc837c56040518163ffffffff1660e01b8152600401602060405180830381865afa158015610654573d6000803e3d6000fd5b505050506040513d601f19601f82011682018060405250810190610678919061212d565b90508073ffffffffffffffffffffffffffffffffffffffff163373ffffffffffffffffffffffffffffffffffffffff16146106e8576040517f08c379a00000000000000000000000000000000000000000000000000000000081526004016106df906121cc565b60405180910390fd5b60008060009054906101000a900473ffffffffffffffffffffffffffffffffffffffff1673ffffffffffffffffffffffffffffffffffffffff1663358177736040518060400160405280600681526020017f706f6c69637900000000000000000000000000000000000000000000000000008152506040518263ffffffff1660e01b8152600401610779919061208b565b602060405180830381865afa158015610796573d6000803e3d6000fd5b505050506040513d601f19601f820116820180604052508101906107ba91906120c2565b905060008173ffffffffffffffffffffffffffffffffffffffff16635eb7d95a866040518263ffffffff1660e01b81526004016107f791906121fb565b602060405180830381865afa158015610814573d6000803e3d6000fd5b505050506040513d601f19601f82011682018060405250810190610838919061222b565b905060006001600260008873ffffffffffffffffffffffffffffffffffffffff1673ffffffffffffffffffffffffffffffffffffffff1681526020019081526020016000205461088891906122bf565b905060011515600182815481106108a2576108a16122f3565b5b906000526020600020906003020160020160009054906101000a900460ff16151514610903576040517f08c379a00000000000000000000000000000000000000000000000000000000081526004016108fa9061236e565b60405180910390fd5b600015156001828154811061091b5761091a6122f3565b5b906000526020600020906003020160020160019054906101000a900460ff1615151461097c576040517f08c379a0000000000000000000000000000000000000000000000000000000008152600401610973906123da565b60405180910390fd5b6001808281548110610991576109906122f3565b5b906000526020600020906003020160020160016101000a81548160ff0219169083151502179055506000600182815481106109cf576109ce6122f3565b5b90600052602060002090600302016001015490506109ec876118f1565b8373ffffffffffffffffffffffffffffffffffffffff166350802e3f88836040518363ffffffff1660e01b8152600401610a27929190612409565b600060405180830381600087803b158015610a4157600080fd5b505af1158015610a55573d6000803e3d6000fd5b505050507f9399804fcdc49f981ddb364feccbc1cf0b8430761121f70e86695ff5abdb742f8784604051610a8a929190612267565b60405180910390a150505050505050565b610aa3611c5b565b816000600260008373ffffffffffffffffffffffffffffffffffffffff1673ffffffffffffffffffffffffffffffffffffffff16815260200190815260200160002054905060008103610b2b576040517f08c379a0000000000000000000000000000000000000000000000000000000008152600401610b2290611fec565b60405180910390fd5b600180600260008773ffffffffffffffffffffffffffffffffffffffff1673ffffffffffffffffffffffffffffffffffffffff16815260200190815260200160002054610b7891906122bf565b81548110610b8957610b886122f3565b5b90600052602060002090600302016040518060800160405290816000820160009054906101000a900473ffffffffffffffffffffffffffffffffffffffff1673ffffffffffffffffffffffffffffffffffffffff1673ffffffffffffffffffffffffffffffffffffffff168152602001600182015481526020016002820160009054906101000a900460ff161515151581526020016002820160019054906101000a900460ff16151515158152505092505050919050565b60008060009054906101000a900473ffffffffffffffffffffffffffffffffffffffff1673ffffffffffffffffffffffffffffffffffffffff1663358177736040518060400160405280600681526020017f706f6c69637900000000000000000000000000000000000000000000000000008152506040518263ffffffff1660e01b8152600401610cd2919061208b565b602060405180830381865afa158015610cef573d6000803e3d6000fd5b505050506040513d601f19601f82011682018060405250810190610d1391906120c2565b905060008173ffffffffffffffffffffffffffffffffffffffff166345f23e29336040518263ffffffff1660e01b8152600401610d5091906121fb565b61010060405180830381865afa158015610d6e573d6000803e3d6000fd5b505050506040513d601f19601f82011682018060405250810190610d92919061257c565b90508060a001513414610dda576040517f08c379a0000000000000000000000000000000000000000000000000000000008152600401610dd19061261c565b60405180910390fd5b60008311610e1d576040517f08c379a0000000000000000000000000000000000000000000000000000000008152600401610e14906126ae565b60405180910390fd5b8060800151831115610e64576040517f08c379a0000000000000000000000000000000000000000000000000000000008152600401610e5b90612740565b60405180910390fd5b8173ffffffffffffffffffffffffffffffffffffffff1663b6bbad12336040518263ffffffff1660e01b8152600401610e9d91906121fb565b602060405180830381865afa158015610eba573d6000803e3d6000fd5b505050506040513d601f19601f82011682018060405250810190610ede919061278c565b610f1d576040517f08c379a0000000000000000000000000000000000000000000000000000000008152600401610f149061282b565b60405180910390fd5b8173ffffffffffffffffffffffffffffffffffffffff16637fcdf27a336040518263ffffffff1660e01b8152600401610f5691906121fb565b602060405180830381865afa158015610f73573d6000803e3d6000fd5b505050506040513d601f19601f82011682018060405250810190610f97919061278c565b610fd6576040517f08c379a0000000000000000000000000000000000000000000000000000000008152600401610fcd90612897565b60405180910390fd5b8173ffffffffffffffffffffffffffffffffffffffff166319ae3c6a336040518263ffffffff1660e01b815260040161100f91906121fb565b602060405180830381865afa15801561102c573d6000803e3d6000fd5b505050506040513d601f19601f82011682018060405250810190611050919061278c565b61108f576040517f08c379a000000000000000000000000000000000000000000000000000000000815260040161108690612929565b60405180910390fd5b8173ffffffffffffffffffffffffffffffffffffffff16630f78984b336040518263ffffffff1660e01b81526004016110c891906121fb565b602060405180830381865afa1580156110e5573d6000803e3d6000fd5b505050506040513d601f19601f82011682018060405250810190611109919061278c565b611148576040517f08c379a000000000000000000000000000000000000000000000000000000000815260040161113f90612995565b60405180910390fd5b6000600260003373ffffffffffffffffffffffffffffffffffffffff1673ffffffffffffffffffffffffffffffffffffffff16815260200190815260200160002054146111ca576040517f08c379a00000000000000000000000000000000000000000000000000000000081526004016111c190612a27565b60405180910390fd5b600060405180608001604052803373ffffffffffffffffffffffffffffffffffffffff168152602001858152602001600015158152602001600015158152509050600181908060018154018082558091505060019003906000526020600020906003020160009091909190915060008201518160000160006101000a81548173ffffffffffffffffffffffffffffffffffffffff021916908373ffffffffffffffffffffffffffffffffffffffff1602179055506020820151816001015560408201518160020160006101000a81548160ff02191690831515021790555060608201518160020160016101000a81548160ff0219169083151502179055505050600180549050600260003373ffffffffffffffffffffffffffffffffffffffff1673ffffffffffffffffffffffffffffffffffffffff168152602001908152602001600020819055508273ffffffffffffffffffffffffffffffffffffffff166108fc349081150290604051600060405180830381858888f19350505050158015611359573d6000803e3d6000fd5b507f4d6145cb353792ba8c39c4edf435ce7b49aaf9613bca0161e8e0ee00f8270a0f33836000015160405161138f929190612267565b60405180910390a150505050565b806000600260008373ffffffffffffffffffffffffffffffffffffffff1673ffffffffffffffffffffffffffffffffffffffff16815260200190815260200160002054905060008103611425576040517f08c379a000000000000000000000000000000000000000000000000000000000815260040161141c90611fec565b60405180910390fd5b60008060009054906101000a900473ffffffffffffffffffffffffffffffffffffffff1673ffffffffffffffffffffffffffffffffffffffff1663358177736040518060400160405280600681526020017f706f6c69637900000000000000000000000000000000000000000000000000008152506040518263ffffffff1660e01b81526004016114b6919061208b565b602060405180830381865afa1580156114d3573d6000803e3d6000fd5b505050506040513d601f19601f820116820180604052508101906114f791906120c2565b905060008173ffffffffffffffffffffffffffffffffffffffff1663dbc837c56040518163ffffffff1660e01b8152600401602060405180830381865afa158015611546573d6000803e3d6000fd5b505050506040513d601f19601f8201168201806040525081019061156a919061212d565b90508073ffffffffffffffffffffffffffffffffffffffff163373ffffffffffffffffffffffffffffffffffffffff16146115da576040517f08c379a00000000000000000000000000000000000000000000000000000000081526004016115d1906121cc565b60405180910390fd5b60008060009054906101000a900473ffffffffffffffffffffffffffffffffffffffff1673ffffffffffffffffffffffffffffffffffffffff1663358177736040518060400160405280600681526020017f706f6c69637900000000000000000000000000000000000000000000000000008152506040518263ffffffff1660e01b815260040161166b919061208b565b602060405180830381865afa158015611688573d6000803e3d6000fd5b505050506040513d601f19601f820116820180604052508101906116ac91906120c2565b905060006001600260008973ffffffffffffffffffffffffffffffffffffffff1673ffffffffffffffffffffffffffffffffffffffff168152602001908152602001600020546116fc91906122bf565b90506001808281548110611713576117126122f3565b5b906000526020600020906003020160020160006101000a81548160ff02191690831515021790555060008273ffffffffffffffffffffffffffffffffffffffff16635eb7d95a896040518263ffffffff1660e01b815260040161177691906121fb565b602060405180830381865afa158015611793573d6000803e3d6000fd5b505050506040513d601f19601f820116820180604052508101906117b7919061222b565b90507fb71dc9ae42731f50f6d57159752c8267d98b3d195b2dd32a360b4d44e507813788826040516117ea929190612267565b60405180910390a15050505050505050565b60606001805480602002602001604051908101604052809291908181526020016000905b828210156118e857838290600052602060002090600302016040518060800160405290816000820160009054906101000a900473ffffffffffffffffffffffffffffffffffffffff1673ffffffffffffffffffffffffffffffffffffffff1673ffffffffffffffffffffffffffffffffffffffff168152602001600182015481526020016002820160009054906101000a900460ff161515151581526020016002820160019054906101000a900460ff16151515158152505081526020019060010190611820565b50505050905090565b806000600260008373ffffffffffffffffffffffffffffffffffffffff1673ffffffffffffffffffffffffffffffffffffffff16815260200190815260200160002054905060008103611979576040517f08c379a000000000000000000000000000000000000000000000000000000000815260040161197090611fec565b60405180910390fd5b6000600260008573ffffffffffffffffffffffffffffffffffffffff1673ffffffffffffffffffffffffffffffffffffffff1681526020019081526020016000205490506000600260008673ffffffffffffffffffffffffffffffffffffffff1673ffffffffffffffffffffffffffffffffffffffff168152602001908152602001600020819055508060018054905014611bd35780600260006001808080549050611a2591906122bf565b81548110611a3657611a356122f3565b5b906000526020600020906003020160000160009054906101000a900473ffffffffffffffffffffffffffffffffffffffff1673ffffffffffffffffffffffffffffffffffffffff1673ffffffffffffffffffffffffffffffffffffffff168152602001908152602001600020819055506001808080549050611ab891906122bf565b81548110611ac957611ac86122f3565b5b906000526020600020906003020160018083611ae591906122bf565b81548110611af657611af56122f3565b5b90600052602060002090600302016000820160009054906101000a900473ffffffffffffffffffffffffffffffffffffffff168160000160006101000a81548173ffffffffffffffffffffffffffffffffffffffff021916908373ffffffffffffffffffffffffffffffffffffffff160217905550600182015481600101556002820160009054906101000a900460ff168160020160006101000a81548160ff0219169083151502179055506002820160019054906101000a900460ff168160020160016101000a81548160ff0219169083151502179055509050505b6001805480611be557611be4612a47565b5b6001900381819060005260206000209060030201600080820160006101000a81549073ffffffffffffffffffffffffffffffffffffffff021916905560018201600090556002820160006101000a81549060ff02191690556002820160016101000a81549060ff02191690555050905550505050565b6040518060800160405280600073ffffffffffffffffffffffffffffffffffffffff168152602001600081526020016000151581526020016000151581525090565b6000604051905090565b600080fd5b600073ffffffffffffffffffffffffffffffffffffffff82169050919050565b6000611cd782611cac565b9050919050565b611ce781611ccc565b8114611cf257600080fd5b50565b600081359050611d0481611cde565b92915050565b600060208284031215611d2057611d1f611ca7565b5b6000611d2e84828501611cf5565b91505092915050565b611d4081611ccc565b82525050565b6000819050919050565b611d5981611d46565b82525050565b60008115159050919050565b611d7481611d5f565b82525050565b608082016000820151611d906000850182611d37565b506020820151611da36020850182611d50565b506040820151611db66040850182611d6b565b506060820151611dc96060850182611d6b565b50505050565b6000608082019050611de46000830184611d7a565b92915050565b611df381611d46565b8114611dfe57600080fd5b50565b600081359050611e1081611dea565b92915050565b600060208284031215611e2c57611e2b611ca7565b5b6000611e3a84828501611e01565b91505092915050565b600081519050919050565b600082825260208201905092915050565b6000819050602082019050919050565b608082016000820151611e856000850182611d37565b506020820151611e986020850182611d50565b506040820151611eab6040850182611d6b565b506060820151611ebe6060850182611d6b565b50505050565b6000611ed08383611e6f565b60808301905092915050565b6000602082019050919050565b6000611ef482611e43565b611efe8185611e4e565b9350611f0983611e5f565b8060005b83811015611f3a578151611f218882611ec4565b9750611f2c83611edc565b925050600181019050611f0d565b5085935050505092915050565b60006020820190508181036000830152611f618184611ee9565b905092915050565b600082825260208201905092915050565b7f506f6c69637920686f6c64657220646f65736e2774206861766520616e79206360008201527f6c61696d206170706c69636174696f6e73000000000000000000000000000000602082015250565b6000611fd6603183611f69565b9150611fe182611f7a565b604082019050919050565b6000602082019050818103600083015261200581611fc9565b9050919050565b600081519050919050565b60005b8381101561203557808201518184015260208101905061201a565b60008484015250505050565b6000601f19601f8301169050919050565b600061205d8261200c565b6120678185611f69565b9350612077818560208601612017565b61208081612041565b840191505092915050565b600060208201905081810360008301526120a58184612052565b905092915050565b6000815190506120bc81611cde565b92915050565b6000602082840312156120d8576120d7611ca7565b5b60006120e6848285016120ad565b91505092915050565b60006120fa82611cac565b9050919050565b61210a816120ef565b811461211557600080fd5b50565b60008151905061212781612101565b92915050565b60006020828403121561214357612142611ca7565b5b600061215184828501612118565b91505092915050565b7f4f6e6c792074686520696e73757265722063616e2076657269667920636c616960008201527f6d73000000000000000000000000000000000000000000000000000000000000602082015250565b60006121b6602283611f69565b91506121c18261215a565b604082019050919050565b600060208201905081810360008301526121e5816121a9565b9050919050565b6121f581611ccc565b82525050565b600060208201905061221060008301846121ec565b92915050565b60008151905061222581611dea565b92915050565b60006020828403121561224157612240611ca7565b5b600061224f84828501612216565b91505092915050565b61226181611d46565b82525050565b600060408201905061227c60008301856121ec565b6122896020830184612258565b9392505050565b7f4e487b7100000000000000000000000000000000000000000000000000000000600052601160045260246000fd5b60006122ca82611d46565b91506122d583611d46565b92508282039050818111156122ed576122ec612290565b5b92915050565b7f4e487b7100000000000000000000000000000000000000000000000000000000600052603260045260246000fd5b7f436c61696d20686173206e6f74206265656e2076657269666965640000000000600082015250565b6000612358601b83611f69565b915061236382612322565b602082019050919050565b600060208201905081810360008301526123878161234b565b9050919050565b7f436c61696d2068617320616c7265616479206265656e20706169640000000000600082015250565b60006123c4601b83611f69565b91506123cf8261238e565b602082019050919050565b600060208201905081810360008301526123f3816123b7565b9050919050565b612403816120ef565b82525050565b600060408201905061241e60008301856123fa565b61242b6020830184612258565b9392505050565b600080fd5b7f4e487b7100000000000000000000000000000000000000000000000000000000600052604160045260246000fd5b61246f82612041565b810181811067ffffffffffffffff8211171561248e5761248d612437565b5b80604052505050565b60006124a1611c9d565b90506124ad8282612466565b919050565b600061010082840312156124c9576124c8612432565b5b6124d4610100612497565b905060006124e484828501612216565b60008301525060206124f884828501612216565b602083015250604061250c84828501612216565b604083015250606061252084828501612216565b606083015250608061253484828501612216565b60808301525060a061254884828501612216565b60a08301525060c061255c84828501612216565b60c08301525060e061257084828501612216565b60e08301525092915050565b6000610100828403121561259357612592611ca7565b5b60006125a1848285016124b2565b91505092915050565b7f506f6c696379686f6c6465722073686f756c642070617920646564756374696260008201527f6c6520666f72206170706c79696e670000000000000000000000000000000000602082015250565b6000612606602f83611f69565b9150612611826125aa565b604082019050919050565b60006020820190508181036000830152612635816125f9565b9050919050565b7f436c61696d20616d6f756e74206d75737420626520677265617465722074686160008201527f6e207a65726f0000000000000000000000000000000000000000000000000000602082015250565b6000612698602683611f69565b91506126a38261263c565b604082019050919050565b600060208201905081810360008301526126c78161268b565b9050919050565b7f436c61696d20616d6f756e74206d757374206265206c657373207468616e206f60008201527f7220657175616c20746f20706f6c696379206c696d6974000000000000000000602082015250565b600061272a603783611f69565b9150612735826126ce565b604082019050919050565b600060208201905081810360008301526127598161271d565b9050919050565b61276981611d5f565b811461277457600080fd5b50565b60008151905061278681612760565b92915050565b6000602082840312156127a2576127a1611ca7565b5b60006127b084828501612777565b91505092915050565b7f4f6e6c7920706f6c69637920686f6c646572732063616e207375626d6974206360008201527f6c61696d73000000000000000000000000000000000000000000000000000000602082015250565b6000612815602583611f69565b9150612820826127b9565b604082019050919050565b6000602082019050818103600083015261284481612808565b9050919050565b7f506f6c6963792069736e27742061637469766174656400000000000000000000600082015250565b6000612881601683611f69565b915061288c8261284b565b602082019050919050565b600060208201905081810360008301526128b081612874565b9050919050565b7f50796d656e7420646561646c696e6520686173206265656e206d69737365642e60008201527f2054686520706f6c69637920697320696e616374697665000000000000000000602082015250565b6000612913603783611f69565b915061291e826128b7565b604082019050919050565b6000602082019050818103600083015261294281612906565b9050919050565b7f506f6c6963792065787069726564000000000000000000000000000000000000600082015250565b600061297f600e83611f69565b915061298a82612949565b602082019050919050565b600060208201905081810360008301526129ae81612972565b9050919050565b7f506f6c69637920686f6c6465722068617320616c7265616479206170706c696560008201527f6420666f7220636c61696d000000000000000000000000000000000000000000602082015250565b6000612a11602b83611f69565b9150612a1c826129b5565b604082019050919050565b60006020820190508181036000830152612a4081612a04565b9050919050565b7f4e487b7100000000000000000000000000000000000000000000000000000000600052603160045260246000fdfea264697066735822122021677400b58c1997f6333f1e02923d04d7bf28792b145366fc2805f7a7d8bfe864736f6c63430008120033",
  "linkReferences": {},
  "deployedLinkReferences": {}
}